:1000000057C067C066C065C064C063C062C061C0DD
:1000100060C05FC08801880188013701D201880172
:100020003701D20188014B024B024B026E02D20112
:1000300071013701D2018801100388018801100382
:10004000E302BA0293026E0293029F012A020B029C
:10005000ED01D201B801D201370171013701D2019E
:100060008801BC02BC02BC02F401C800BC02F4015D
:10007000C8007805BC02BC02BC02F401C800BC0286
:10008000F401C8007805BC02F401C800BC02F40108
:10009000C800C800C80084032C01BC02F401C800D9
:1000A000C800C80084032C01BC02F401C800DC05B0
:1000B00011241FBECFE9CDBF10E0A0E6B0E0E6EA14
:1000C000F3E002C005900D92A039B107D9F7A4D092
:1000D00068C196CF442349F497B38095892387BBA1
:1000E00088B36095682368BB0895413031F497B3B5
:1000F000982B97BB88B3862B88BB0895CF92DF924D
:10010000EF92FF920F931F93CF93DF938823E9F42D
:10011000C0E6D0E008E710E0D8802296D801EC9045
:100120000E5F1F4F8D2D6E2D41E0D4DFEFE5FAEE0F
:100130003197F1F700C000008D2D6E2D40E0CADF31
:10014000F0E0C837DF0741F75EC0813059F5CAE7F4
:10015000D0E002E910E02297D88002501040D80188
:10016000EC908D2D6E2D41E0B5DFEFE5FAEE319785
:10017000F1F700C000008D2D6E2D40E0ABDFF0E008
:10018000C236DF0741F78AE062E041E0A3DF8FE596
:100190009AEE0197F1F700C000008AE062E040E0CB
:1001A00099DF31C0823011F4B7D02DC0833059F5BA
:1001B000C0E6D0E08E01065E1F4F88E7E82E80E0A3
:1001C000F82E8881229602501040D801DC90D82A5F
:1001D000F701C08082E090E0E80EF91E8D2D6C2DB5
:1001E00041E078DF8FEF90EEA0E081509040A0409A
:1001F000E1F700C000008D2D6C2D40E06BDF90E03A
:10020000C837D907F1F6DF91CF911F910F91FF9079
:10021000EF90DF90CF9008951F9312D0182F6EDFCC
:10022000812F6CDF812F6ADF85B7877E806185BF74
:1002300085B7806285BF889580E090E01F91089522
:100240001F9380E090E097D0182F682F6F5F80E0B9
:1002500090E099D0133020F080E090E060E093D0FF
:10026000812F90E01F91089587B38FEF87BB88B3EC
:1002700088BB0895CF92DF92EF92FF920F931F9366
:10028000CF93DF9382E48FBD83E083BFC0E0D0E0F3
:10029000C12C3CE7D32E32E9E32EF12CCE01880F9E
:1002A000991FFC01EC5EFF4F259134918E599F4FB1
:1002B000FC01859194918C01000F111F442737FD9B
:1002C0004095542F87E0220F331F441F551F8A95F6
:1002D000D1F7C701B6012DD0215026BF86B785754D
:1002E00088BB08C08FEB9DE50197F1F700C00000C7
:1002F0000A50104010161106ACF32196C732D105F2
:1003000069F61FBC13BEDF91CF911F910F91FF9033
:10031000EF90DF90CF900895A7DFACDF18BA17BA3F
:1003200085B7877E806185BF85B7806285BF8895E8
:100330000895A1E21A2EAA1BBB1BFD010DC0AA1F26
:10034000BB1FEE1FFF1FA217B307E407F50720F03E
:10035000A21BB30BE40BF50B661F771F881F991FB9
:100360001A9469F760957095809590959B01AC0102
:10037000BD01CF010895E199FECF1FBA8EBBE09A6F
:1003800099278DB30895262FE199FECF1CBA1FBA85
:100390008EBB2DBB0FB6F894E29AE19A0FBE019680
:0603A0000895F894FFCF60
:1003A6000A000A00060006001400140012001200DB
:1003B600180018000C000C000200080002000400DF
:1003C60010000400020010001000080004000800DD
:00000001FF
