:1000000057C067C066C065C064C063C062C061C0DD
:1000100060C05FC08801880188013701D201880172
:100020003701D20188014B024B024B026E02D20112
:1000300071013701D2018801100388018801100382
:10004000E302BA0293026E0293029F012A020B029C
:10005000ED01D201B801D201370171013701D2019E
:100060008801BC02BC02BC02F401C800BC02F4015D
:10007000C8007805BC02BC02BC02F401C800BC0286
:10008000F401C8007805BC02F401C800BC02F40108
:10009000C800C800C80084032C01BC02F401C800D9
:1000A000C800C80084032C01BC02F401C800DC05B0
:1000B00011241FBECFE9CDBF10E0A0E6B0E0EEEC0A
:1000C000F3E002C005900D92A039B107D9F7BBD07B
:1000D0007CC196CF97B3982B97BB88B3682B68BB2E
:1000E000089597B38095892387BB88B3609568236B
:1000F00068BB089524EC39E004C08150F9013197C0
:10010000F1F78823D1F70895AF92BF92CF92DF9293
:10011000EF92FF920F931F93CF93DF938823B9F44D
:10012000C0E6D0E008E710E0C8802296F801E08041
:100130000E5F1F4F8C2D6E2DCDDF89E1DBDF8C2D07
:100140006E2DCFDFF0E0C837DF0771F771C0813067
:10015000F9F4CAE7D0E002E910E02297C880025023
:100160001040F801E0808C2D6E2DB4DF89E1C2DFF4
:100170008C2D6E2DB6DFF0E0C236DF0771F78AE016
:1001800068E0A8DF89E1B6DF8AE068E0AADF50C056
:10019000823011F48AD04CC0833069F5C0E6D0E0DB
:1001A0009AE1E92EF12CEC0EFD1E08E710E08AE141
:1001B000C82ED12CC00ED11E888122962EEF3FEF83
:1001C000E20EF31EF701A080A82AF80180810E5FDD
:1001D0001F4FC20ED31EF601B080B82A8A2D6B2D98
:1001E00079DF84E687DF8A2D6B2D7BDFF0E0C8376F
:1001F000DF0711F71DC08430D9F4C0E6D0E008E76E
:1002000010E088812296CA84C82AF80180810E5F96
:100210001F4FF801E284E82A8C2D6E2D5BDF84E607
:1002200069DF8C2D6E2D5DDFF0E0C837DF0749F701
:10023000DF91CF911F910F91FF90EF90DF90CF90C2
:10024000BF90AF9008951F9316D0182F5DDF812FB8
:100250005BDF812F59DF812F57DF812F55DF85B776
:10026000877E806185BF85B7806285BF889580E085
:1002700090E01F9108951F9380E090E090D0182F98
:10028000682F6F5F80E090E092D0133020F080E024
:1002900090E060E08CD0812F90E01F91089587B3AB
:1002A0008FEF87BB88B388BB0895CF92DF92EF9220
:1002B000FF920F931F93CF93DF93F1DF82E48FBD03
:1002C00083E083BFC0E0D0E0C12C3CE7D32E32E90D
:1002D000E32EF12CCE01880F991FFC01EC5EFF4F3D
:1002E000259134918E599F4FFC0185919491082F4F
:1002F000192F442737FD4095542F87E0220F331FD5
:10030000441F551F8A95D1F7C701B60126D0215049
:1003100026BF86B7857588BB04C08AE0EBDE0A502D
:10032000104010161106CCF32196C732D10591F674
:100330001FBC13BE18BA17BA85B7877E806185BF08
:1003400085B7806285BF8895DF91CF911F910F910E
:10035000FF90EF90DF90CF900895A1E21A2EAA1B94
:10036000BB1BFD010DC0AA1FBB1FEE1FFF1FA21765
:10037000B307E407F50720F0A21BB30BE40BF50B62
:10038000661F771F881F991F1A9469F760957095EB
:10039000809590959B01AC01BD01CF010895E19935
:1003A000FECF1FBA8EBBE09A99278DB30895262FF2
:1003B000E199FECF1CBA1FBA8EBB2DBB0FB6F894C5
:0E03C000E29AE19A0FBE01960895F894FFCFDD
:1003CE000A000600060014001400120012001800A5
:1003DE0018000C000C000A000800020004001000B7
:1003EE0004000200100010000800040008000200C3
:00000001FF
