:1000000057C067C066C065C064C063C062C061C0DD
:1000100060C05FC08801880188013701D201880172
:100020003701D20188014B024B024B026E02D20112
:1000300071013701D2018801100388018801100382
:10004000E302BA0293026E0293029F012A020B029C
:10005000ED01D201B801D201370171013701D2019E
:1000600088015E015E015E01FA0064005E01FA0033
:100070006400BC025E015E015E01FA0064005E0184
:10008000FA006400BC025E01FA0064005E01FA003E
:10009000640064006400C20196005E01FA0064001E
:1000A00064006400C20196005E01FA006400EE0282
:1000B00011241FBECFE9CDBF10E0A0E6B0E0EAE911
:1000C000F3E002C005900D92A039B107D9F702D034
:1000D00062C196CF1F93B6D0182F25D0812F23D081
:1000E000812F21D085B7877E806185BF85B78062EB
:1000F00085BF889580E090E01F910895982F442354
:1001000049F487B39095892387BB88B3609586238C
:1001100088BB0895413031F487B3892B87BB88B3FE
:10012000862B88BB0895CF92DF92EF92FF920F93B8
:100130001F93CF93DF938823F1F4C0E0D0E040E633
:10014000E42E4AEEF42EFE01E05AFF4F0081FE013C
:10015000E858FF4F1081802F612F41E0CFDFC701AA
:100160000197F1F7802F612F40E0C8DF2296C83158
:10017000D10549F75EC0813071F5C8E7D0E030E9BC
:10018000E32E30E0F32E20E6C22E2AEED22E188186
:10019000D7010C91812F602F41E0B0DFC60101979C
:1001A000F1F7812F602F40E0A9DF2297EEEFFFEFFC
:1001B000EE0EFF1EF0E0C036DF0749F78AE062E08E
:1001C00041E09CDF80E69AEE0197F1F78AE062E079
:1001D00040E094DF2EC0823011F493D02AC08330E7
:1001E00041F598E7E92E90E0F92EC0E0D0E080E6F6
:1001F000C82E8AEED82EFE01E05AFF4FD7011C917F
:100200008081182BFE01E858FF4F0081812F602F5D
:1002100041E074DFC6010197F1F7812F602F40E0C4
:100220006DDF2296EEEFFFEFEE0EFF1EC831D10517
:1002300011F7DF91CF911F910F91FF90EF90DF9019
:10024000CF9008951F9380E090E08FD0182F682FF3
:100250006F5F80E090E091D0133020F080E090E07C
:1002600060E08BD0812F90E01F91089587B38FEFCE
:1002700087BB88B388BB0895EF92FF920F931F93BB
:10028000CF93DF9382E48FBD83E083BFC0E0D0E0F3
:1002900090ECE92E9DE5F92EFE01EC5EFF4F2591D5
:1002A0003491FE01EE59FF4F05911491442737FD1B
:1002B0004095542F87E0220F331F441F551F8A9506
:1002C000D1F760E07CE782E990E02DD0215026BF95
:1002D00086B78A6A88BB05C0C7010197F1F70A5043
:1002E000104010161106C4F32296CE34D105A1F6A3
:1002F0001FBC13BEDF91CF911F910F91FF90EF9024
:10030000089587B38FEF87BB88B388BBB5DF18BA72
:1003100087B387BB85B7877E806185BF85B78062DD
:1003200085BF88950895A1E21A2EAA1BBB1BFD016B
:100330000DC0AA1FBB1FEE1FFF1FA217B307E407C4
:10034000F50720F0A21BB30BE40BF50B661F771F1C
:10035000881F991F1A9469F76095709580959095FC
:100360009B01AC01BD01CF010895E199FECF1FBAF9
:100370008EBBE09A99278DB30895262FE199FECF81
:100380001CBA1FBA8EBB2DBB0FB6F894E29AE19A45
:0A0390000FBE01960895F894FFCF08
:10039A000A000A00060006001400140012001200E7
:1003AA00180018000C000C000200080002000400EB
:1003BA0010000400020010001000080004000800E9
:00000001FF
