:1000000035C045C044C043C042C041C040C03FC0ED
:100010003EC03DC093024B029302B8010000BA02F9
:100020009302BA0293024B020000BA029302BA0290
:10003000B80100004B020B024B020B02DC034B0227
:100040006400640090019001580264006400C800DC
:10005000C8009001580264006400900190015802A9
:1000600064006400C800C800C800C80011241FBE96
:10007000CFE9CDBF10E0A0E6B0E0E0E7F3E002C0DA
:1000800005900D92A039B107D9F702D06FC1B8CF52
:100090001F93CFD0182F2ED0812F2CD0812F2AD074
:1000A000812F28D0812F26D085B7877E806185BF9C
:1000B00085B7806285BF889580E090E01F910895A4
:1000C00097B3982B97BB88B3862B88BB089597B3BB
:1000D0008095982397BB88B36095862388BB089545
:1000E00024EC39E004C08150F9013197F1F78823FD
:1000F000D1F708950F931F93CF93DF93882339F59A
:1001000040E050E064EC79E0FA01E05AFF4F3081C2
:10011000FA01E858FF4FE08187B3832B87BB88B390
:100120008E2B88BB29E12150CB010197F1F72223C7
:10013000D1F787B33095382337BB88B3E095E823F0
:10014000E8BB4E5F5F4F48315105F1F66DC081301D
:10015000A9F5E8E7F0E0A0E9B0E064EC79E03081EF
:100160004C9187B3832B87BB88B3842B88BB29E151
:100170002150CB010197F1F72223D1F787B33095B6
:10018000382337BB88B34095482348BB3297129732
:1001900080E0E036F80719F787B38A6087BBC39A17
:1001A00029E144EC59E02150CA010197F1F72223DB
:1001B000D1F787B3857F87BBC39836C0823011F4EF
:1001C00052D032C0833081F5C8E7D0E0A0E9B0E07A
:1001D00060E070E004EC19E0FB01E05AFF4F488159
:1001E0008081482BFB01E858FF4F3C918081382BE0
:1001F00087B3842B87BB88B3832B88BB24E621502D
:10020000C8010197F1F72223D1F787B3409548231E
:1002100047BB88B33095382338BB6E5F7F4F22973A
:10022000129768317105C1F6DF91CF911F910F913F
:1002300008951F9380E090E083D0182F682F6F5FA0
:1002400080E090E085D0133020F080E090E060E026
:100250007FD0812F90E01F91089587B38FEF87BBE8
:1002600088B388BB08950F931F93CF93DF9387B311
:100270008FEF87BB88B388BB82E48FBD83E083BFE9
:10028000C0E0D0E0FE01EC5EFF4F25913491FE010D
:10029000E05CFF4F05911491442737FD4095542FA2
:1002A00087E0220F331F441F551F8A95D1F760E066
:1002B0007CE782E990E022D0215026BF86B7857581
:1002C00088BB04C08AE00CDF0A50104010161106EB
:1002D000CCF32296CC32D105A9F61FBC13BE18BAB6
:1002E00017BA85B7877E806185BF85B7806285BF75
:1002F0008895DF91CF911F910F910895A1E21A2E59
:10030000AA1BBB1BFD010DC0AA1FBB1FEE1FFF1FB9
:10031000A217B307E407F50720F0A21BB30BE40B09
:10032000F50B661F771F881F991F1A9469F7609550
:100330007095809590959B01AC01BD01CF0108950A
:10034000E199FECF1FBA8EBBE09A99278DB308952D
:10035000262FE199FECF1CBA1FBA8EBB2DBB0FB65C
:10036000F894E29AE19A0FBE01960895F894FFCFAF
:100370000A00060006001400140012001200180003
:1003800018000C000C000A00080002000400100015
:100390000400020010001000080004000800020021
:00000001FF
